{
  "contractName": "NeriSmartContract",
  "abi": [
    {
      "constant": true,
      "inputs": [],
      "name": "owner",
      "outputs": [
        {
          "name": "",
          "type": "address"
        }
      ],
      "payable": false,
      "stateMutability": "view",
      "type": "function"
    },
    {
      "constant": false,
      "inputs": [
        {
          "name": "newOwner",
          "type": "address"
        }
      ],
      "name": "transferOwnership",
      "outputs": [],
      "payable": false,
      "stateMutability": "nonpayable",
      "type": "function"
    },
    {
      "constant": true,
      "inputs": [],
      "name": "token",
      "outputs": [
        {
          "name": "",
          "type": "address"
        }
      ],
      "payable": false,
      "stateMutability": "view",
      "type": "function"
    },
    {
      "inputs": [
        {
          "name": "_contractAddress",
          "type": "address"
        }
      ],
      "payable": false,
      "stateMutability": "nonpayable",
      "type": "constructor"
    },
    {
      "payable": true,
      "stateMutability": "payable",
      "type": "fallback"
    },
    {
      "anonymous": false,
      "inputs": [
        {
          "indexed": true,
          "name": "previousOwner",
          "type": "address"
        },
        {
          "indexed": true,
          "name": "newOwner",
          "type": "address"
        }
      ],
      "name": "OwnershipTransferred",
      "type": "event"
    },
    {
      "constant": false,
      "inputs": [
        {
          "name": "_address",
          "type": "address"
        },
        {
          "name": "_amountTokens",
          "type": "uint256"
        }
      ],
      "name": "sendToken",
      "outputs": [
        {
          "name": "success",
          "type": "bool"
        }
      ],
      "payable": false,
      "stateMutability": "nonpayable",
      "type": "function"
    },
    {
      "constant": false,
      "inputs": [
        {
          "name": "_addresses",
          "type": "address[]"
        },
        {
          "name": "_amountTokens",
          "type": "uint256[]"
        }
      ],
      "name": "sendTokens",
      "outputs": [
        {
          "name": "success",
          "type": "bool"
        }
      ],
      "payable": false,
      "stateMutability": "nonpayable",
      "type": "function"
    },
    {
      "constant": true,
      "inputs": [],
      "name": "getAddresses",
      "outputs": [
        {
          "name": "",
          "type": "address[]"
        }
      ],
      "payable": false,
      "stateMutability": "view",
      "type": "function"
    }
  ],
  "bytecode": "0x6060604052341561000f57600080fd5b6040516020806109a883398101604052808051906020019091905050336000806101000a81548173ffffffffffffffffffffffffffffffffffffffff021916908373ffffffffffffffffffffffffffffffffffffffff16021790555060008173ffffffffffffffffffffffffffffffffffffffff161415151561009157600080fd5b80600160006101000a81548173ffffffffffffffffffffffffffffffffffffffff021916908373ffffffffffffffffffffffffffffffffffffffff160217905550506108c6806100e26000396000f300606060405260043610610078576000357c0100000000000000000000000000000000000000000000000000000000900463ffffffff168063412664ae1461007d5780638da5cb5b146100d7578063a39fac121461012c578063d8b66ae114610196578063f2fde38b14610248578063fc0c546a14610281575b600080fd5b341561008857600080fd5b6100bd600480803573ffffffffffffffffffffffffffffffffffffffff169060200190919080359060200190919050506102d6565b604051808215151515815260200191505060405180910390f35b34156100e257600080fd5b6100ea6104b9565b604051808273ffffffffffffffffffffffffffffffffffffffff1673ffffffffffffffffffffffffffffffffffffffff16815260200191505060405180910390f35b341561013757600080fd5b61013f6104de565b6040518080602001828103825283818151815260200191508051906020019060200280838360005b83811015610182578082015181840152602081019050610167565b505050509050019250505060405180910390f35b34156101a157600080fd5b61022e600480803590602001908201803590602001908080602002602001604051908101604052809392919081815260200183836020028082843782019150505050505091908035906020019082018035906020019080806020026020016040519081016040528093929190818152602001838360200280828437820191505050505050919050506105cd565b604051808215151515815260200191505060405180910390f35b341561025357600080fd5b61027f600480803573ffffffffffffffffffffffffffffffffffffffff169060200190919050506106ba565b005b341561028c57600080fd5b61029461080f565b604051808273ffffffffffffffffffffffffffffffffffffffff1673ffffffffffffffffffffffffffffffffffffffff16815260200191505060405180910390f35b60008060009054906101000a900473ffffffffffffffffffffffffffffffffffffffff1673ffffffffffffffffffffffffffffffffffffffff163373ffffffffffffffffffffffffffffffffffffffff1614151561033357600080fd5b60008373ffffffffffffffffffffffffffffffffffffffff161415151561035957600080fd5b600160009054906101000a900473ffffffffffffffffffffffffffffffffffffffff1673ffffffffffffffffffffffffffffffffffffffff1663a9059cbb84846000604051602001526040518363ffffffff167c0100000000000000000000000000000000000000000000000000000000028152600401808373ffffffffffffffffffffffffffffffffffffffff1673ffffffffffffffffffffffffffffffffffffffff16815260200182815260200192505050602060405180830381600087803b151561042657600080fd5b6102c65a03f1151561043757600080fd5b50505060405180519050151561044c57600080fd5b600280548060010182816104609190610835565b9160005260206000209001600085909190916101000a81548173ffffffffffffffffffffffffffffffffffffffff021916908373ffffffffffffffffffffffffffffffffffffffff160217905550506001905092915050565b6000809054906101000a900473ffffffffffffffffffffffffffffffffffffffff1681565b6104e6610861565b6000809054906101000a900473ffffffffffffffffffffffffffffffffffffffff1673ffffffffffffffffffffffffffffffffffffffff163373ffffffffffffffffffffffffffffffffffffffff1614151561054157600080fd5b60028054806020026020016040519081016040528092919081815260200182805480156105c357602002820191906000526020600020905b8160009054906101000a900473ffffffffffffffffffffffffffffffffffffffff1673ffffffffffffffffffffffffffffffffffffffff1681526020019060010190808311610579575b5050505050905090565b6000806000809054906101000a900473ffffffffffffffffffffffffffffffffffffffff1673ffffffffffffffffffffffffffffffffffffffff163373ffffffffffffffffffffffffffffffffffffffff1614151561062b57600080fd5b6000845111151561063b57600080fd5b6000835111151561064b57600080fd5b8251845114151561065b57600080fd5b600090505b83518110156106af576106a1848281518110151561067a57fe5b90602001906020020151848381518110151561069257fe5b906020019060200201516102d6565b508080600101915050610660565b600191505092915050565b6000809054906101000a900473ffffffffffffffffffffffffffffffffffffffff1673ffffffffffffffffffffffffffffffffffffffff163373ffffffffffffffffffffffffffffffffffffffff1614151561071557600080fd5b600073ffffffffffffffffffffffffffffffffffffffff168173ffffffffffffffffffffffffffffffffffffffff161415151561075157600080fd5b8073ffffffffffffffffffffffffffffffffffffffff166000809054906101000a900473ffffffffffffffffffffffffffffffffffffffff1673ffffffffffffffffffffffffffffffffffffffff167f8be0079c531659141344cd1fd0a4f28419497f9722a3daafe3b4186f6b6457e060405160405180910390a3806000806101000a81548173ffffffffffffffffffffffffffffffffffffffff021916908373ffffffffffffffffffffffffffffffffffffffff16021790555050565b600160009054906101000a900473ffffffffffffffffffffffffffffffffffffffff1681565b81548183558181151161085c5781836000526020600020918201910161085b9190610875565b5b505050565b602060405190810160405280600081525090565b61089791905b8082111561089357600081600090555060010161087b565b5090565b905600a165627a7a72305820d36d41e0cbe7e23c1501f675bc31d0aca99efd14f0e95cb6a4061777ee3561770029",
  "source": "pragma solidity ^0.4.18;\r\n\r\nimport \"./SafeMath.sol\";\r\nimport \"./Ownable.sol\";\r\nimport \"./NeriToken.sol\";\r\n\r\n/**\r\n * @title NeriSmartContract Smart Contract\r\n */\r\ncontract NeriSmartContract is Ownable {\r\n\r\n    using SafeMath for uint256;\r\n\r\n    NeriToken public token; // The token being sold\r\n\r\n    address[] addresses;\r\n\r\n    function NeriSmartContract(address _contractAddress) public {\r\n        require(_contractAddress != 0x0);\r\n        token = NeriToken(_contractAddress);\r\n    }\r\n\r\n    function() public payable {\r\n        revert();\r\n    }\r\n\r\n    // Send Tokens from smart contract (only owner)\r\n    function sendToken(address _address, uint256 _amountTokens) public onlyOwner returns(bool success){\r\n        require(_address != 0x0);\r\n        require(token.transfer(_address, _amountTokens));\r\n\r\n        addresses.push(_address);\r\n\r\n        return true;\r\n    }\r\n\r\n    function sendTokens(address[] _addresses, uint256[] _amountTokens) public onlyOwner returns(bool success) {\r\n        require(_addresses.length > 0);\r\n        require(_amountTokens.length > 0);\r\n        require(_addresses.length  == _amountTokens.length);\r\n\r\n        for (uint256 i = 0; i < _addresses.length; i++) {\r\n            sendToken(_addresses[i], _amountTokens[i]);\r\n        }\r\n\r\n        return true;\r\n    }\r\n\r\n    function getAddresses() public onlyOwner view returns (address[] )  {\r\n        return addresses;\r\n    }\r\n}",
  "sourcePath": "C:\\Users\\home\\Desktop\\neritrading-token\\contracts\\NeriSmartContract.sol",
  "compiler": {
    "name": "solc",
    "version": "0.4.19+commit.c4cbbb05.Emscripten.clang"
  },
  "schemaVersion": "2.0.0",
  "updatedAt": "2018-03-25T17:55:50.595Z"
}